:020000040800F2
:10000000B80C002089010008571700083D120008AD
:1000100055170008D3020008C117000800000000AF
:100020000000000000000000000000005B17000856
:100030001703000800000000591700085D170008AA
:10004000A3010008A3010008A3010008A301000800
:10005000A3010008A3010008A3010008A3010008F0
:10006000A3010008A3010008A3010008A3010008E0
:10007000A3010008A3010008A3010008A3010008D0
:10008000D5020008E1020008A3010008A30100084E
:10009000A3010008A3010008A3010008A3010008B0
:1000A000A3010008A3010008A3010008A3010008A0
:1000B000A3010008A3010008A3010008A301000890
:1000C000A3010008A3010008A3010008A301000880
:1000D000A3010008A3010008A3010008A301000870
:1000E000A3010008A3010008A301000800F002F822
:1000F00000F03AF80AA090E8000C82448344AAF188
:100100000107DA4501D100F02FF8AFF2090EBAE885
:100110000F0013F0010F18BFFB1A43F0010318473B
:10012000242C0000442C0000103A24BF78C878C169
:10013000FAD8520724BF30C830C144BF04680C60ED
:10014000704700000023002400250026103A28BF35
:1001500078C1FBD8520728BF30C148BF0B60704739
:100160001FB51FBD10B510BD00F07AF81146FFF79E
:10017000F7FF01F037FB00F098F803B4FFF7F2FF48
:1001800003BC00F09FF80000094880470948004779
:10019000FEE7FEE7FEE7FEE7FEE7FEE7FEE7FEE737
:1001A000FEE7FEE704480549054A064B7047000094
:1001B000BF170008ED000008B8060020B80C0020AA
:1001C000B8080020B80800204FF000020429C0F051
:1001D000128010F0030C00F01B80CCF1040CBCF179
:1001E000020F18BF00F8012BA8BF20F8022BA1EBCB
:1001F0000C0100F00DB85FEAC17C24BF00F8012BB0
:1002000000F8012B48BF00F8012B70474FF00002A7
:1002100000B5134694469646203922BFA0E80C50FC
:10022000A0E80C50B1F12001BFF4F7AF090728BFD7
:10023000A0E80C5048BF0CC05DF804EB890028BF53
:1002400040F8042B08BF704748BF20F8022B11F07C
:10025000804F18BF00F8012B7047704770477047F8
:10026000754600F02BF8AE4605006946534620F06F
:100270000700854618B020B5FFF794FFBDE8204081
:100280004FF000064FF000074FF000084FF0000B52
:1002900021F00701AC46ACE8C009ACE8C009ACE805
:1002A000C009ACE8C0098D46704710B50446AFF3ED
:1002B00000802046BDE81040FFF75FBF0048704750
:1002C0005406002001491820ABBEFEE726000200BC
:1002D0007047FEE7014800F033B80000CC01002071
:1002E000014800F02DB800001002002030B590F851
:1002F00040500124AC40C56B6C6004686360436887
:10030000102B036803D099600068C26030BD9A600A
:100310000068C16030BD704742F2283148434FF059
:10032000E02148610020886101220A610A69D3073F
:1003300001D0D203FAD508618861704772B6FEE732
:100340002DE9F05FC16B0C6801680B68D0F840C004
:10035000042202FA0CF2494DDFF824A1494E4A4F1B
:10036000DFF828B1DFF828E122422CD05A072AD53D
:100370000A68920603D40A6822F004020A6001683F
:10038000A94201D1042219E0514501D1402215E0D2
:10039000B14202D14FF4806210E0B94202D14FF471
:1003A00080420BE0594502D14FF4802206E07145AE
:1003B00002D14FF4800201E04FF080622F490839EA
:1003C0004A60C16A3BE04FF0020808FA0CF818EAEC
:1003D000040F4FF000094FF0010235D05FEA837837
:1003E00032D50B689B0605D40B6823F00A030B601B
:1003F00080F821200168A94201D1022219E051456B
:1004000001D1202215E0B14202D14FF4007210E078
:10041000B94202D14FF400520BE0594502D14FF4DA
:10042000003206E0714502D14FF4001201E04FF0B6
:100430000072124908394A6080F82090816A0029C8
:100440001AD0BDE8F05F0847082505FA0CF52542EB
:1004500012D01B0710D50B6823F00E030B6090F829
:100460004010C36B02FA01F15960826380F82120C9
:1004700080F82090016BE2E7BDE8F09F08000240A1
:100480001C0002403000024044000240580002407C
:100490006C00024030B528B308C81349142219442F
:1004A000B1FBF2F18900C1631049816302214177F8
:1004B0001A6843F6F0718A43D0E900142143D0E969
:1004C00002452C4321430469214344692143846943
:1004D00021431143196000214163012242770177D2
:1004E000084630BD012030BDF8FFFDBF00000240CE
:1004F00070B5044690F82000002501280CD001209A
:1005000084F8200094F821600020012E06D084F8A1
:1005100020000225284670BD022070BD022684F806
:100520002160A0632068066826F001060660204668
:10053000FFF7DCFEE06A00282068016802D041F085
:100540000E0106E021F0040101602068016841F01D
:100550000A0101602068016841F001010160D9E7EA
:100560002DE9F84FDFF8B8910024A9F1040B2346D8
:100570000F2709F1040AABF1040EC9E00125A540DB
:100580002A40AA427DD1674ED1F804C0ACEB0608E0
:10059000B44532D014DCBCF1030F3AD009DCBCF115
:1005A000000F2AD0BCF1010F1CD0BCF1020F31D1D9
:1005B0001DE0BCF1110F17D0BCF1120F2AD119E0C8
:1005C000B8F5881F19D006DCB8F5803F15D0B8F50E
:1005D000801F1FD111E0B8F5001F0ED0B8F5041F21
:1005E00018D10AE0CB6815E0CB681B1D12E0CB6880
:1005F00008330FE0CB680C330CE08B682BB1012B78
:100600004FF0080303D0456104E0042302E00561D4
:1006100000E00023FF2A01D8064601E000F10406AD
:100620004FEA840501D9A5F12005D6F8008007FA24
:1006300005FC28EA0C0803FA05F548EA0508C6F89F
:1006400000804D68ED0062D5374DAE6946F0010679
:10065000AE61AD6924F0030605F001050095334D48
:1006600006EB050CDCF80850A607360F07FA06F86B
:1006700025EA0805DFF8B880404503D14FF00008AF
:1006800017E044E0DFF8AC80404502D14FF00108AC
:100690000FE0DFF8A480404502D14FF0020808E0E7
:1006A000DFF89880404502D14FF0030801E04FF099
:1006B000040808FA06F848EA0508CCF808804D68EE
:1006C000D9F80060ED024D4601D5164300E096438F
:1006D0002E604D68DAF80060AD02554601D516432C
:1006E00000E096432E604D68DBF80060AD035D4688
:1006F00001D5164300E096432E604D68DEF8006099
:10070000ED03754601D5164300E096432E60641C48
:100710000D682A46E5407FF431AFBDE8F88F000050
:1007200008040140000011100010024000000140C8
:1007300000080140000C014000100140001401407D
:100740008068084000D0012070470AB101617047FD
:100750000904FBE701488068704700002C00002076
:100760007047000070B5040025D094F83D000025C6
:1007700020B984F83C50204600F0FCF9242084F88D
:100780003D002068016821F00101016020680168D6
:1007900041F4004101602068016821F400410160DA
:1007A00000F072FB4D4A6168914201D84C4900E06B
:1007B0004C49884201D2012070BD4B492368B0FBEF
:1007C000F1F15E6826F03F060E435E606368934277
:1007D00006D94FF4967359434FF47A73B1FBF3F192
:1007E0002368491C1E6A26F03F063143196261687E
:1007F000914210D84900401EB0FBF1F2521CC2F3E6
:100800000B02042A01D2042022E0B0FBF1F0401CCC
:10081000C0F30B001CE0A268F2B301EBC10303EBD1
:100820000116431EB3FBF6F35B1C43F480431B0528
:1008300049D092B301EBC10202EB0111401EB0FBA3
:10084000F1F0401CC0F30B0040F4804040F4004045
:100850002168CA694CF6FF739A431043C861D4E912
:10086000071001432068026822F0C00211430160B2
:10087000D4E9030101432068826848F2FF339A43B8
:1008800011438160D4E9050108432168CA6822F058
:10089000FF021043C86001E00EE016E02068016826
:1008A00041F0010101602564202084F83D002563AA
:1008B00084F83E50002070BD01EB4106431EB3FB9F
:1008C000F6F35B1CB3E70120C2E701EB4101401ED8
:1008D000B0FBF1F0401CC0F30B00B7E7A0860100AD
:1008E00080841E0000093D0040420F007047000058
:1008F0002DE9F84F1F4690468A460446DDF82890B9
:10090000FFF728FF054694F83D0020287FD11923E2
:10091000012240492046009500F0C2FD002876D112
:1009200094F83C00012872D0012084F83C00206833
:100930000168C90703D1016841F001010160206825
:10094000016821F400610160212084F83D0010203D
:1009500084F83E0000262664C4F824806785608DF4
:1009600020852D48E0622B464A465146204600F03D
:100970001DFD90B9206841698069009036E02A46E3
:100980004946204600F032FE50B1206C042804D1C4
:100990002068016841F4007101600120BDE8F88F12
:1009A000606A216800780861606A401C6062618D3D
:1009B000491E6185218D491E89B2218522685369AE
:1009C000DB435B070BD451B100781061606A401CB7
:1009D0006062608D401E6085208D401E20852A4605
:1009E0004946204600F030FD0028CED1208D002859
:1009F000C5D154F83D0B016841F40071016020201D
:100A000004F81E09E67766770020C7E7FFE70220B3
:100A1000C4E70000020010000000FFFFF8B5002549
:100A20000446009590F83D00202828D14C4846F215
:100A3000A8160068B0FBF6F000EBC00606EB00104D
:100A4000202600900098401E009010D020688069F9
:100A5000C0438007F6D594F83C0001280FD0012050
:100A600084F83C0020680768FF070AD00DE044F8CE
:100A7000305F6673A573206940F02000206102207A
:100A8000F8BD076847F0010707602068076827F48A
:100A900000670760212084F83D00102084F83E00A4
:100AA000256462626385608D20852E48E062616402
:100AB000208DE8B3606BF0B12B498162616B2B48EC
:100AC0000863606BC562606B45632268238D1032DA
:100AD000616A606BFFF70CFDB0B184F83D6084F88B
:100AE0003E5054F8400F40F0100000BF44F8040995
:100AF00001202570F8BD84F83D6084F83E5054F81C
:100B0000400F40F08000F1E784F83C5020684168D5
:100B100041F4407141602068416841F400614160E6
:100B20002068016841F4806101602068016800E08C
:100B300003E041F48071016010E02068016841F435
:100B4000806101602068016841F48071016084F86F
:100B50003C502068416841F4E06141600020F8BDEC
:100B6000380000200000FFFF751200083F12000847
:100B700070470000F0B585B000240646009401944B
:100B80000294039400682349884241D1224DA86908
:100B900040F00800A861A869694600F008000490C8
:100BA000C020009012200190032003901B48FFF703
:100BB000D7FCE86940F40010E861E869194D00F4D9
:100BC000001004901648802701C5102091C51548D3
:100BD00045F810496C61AC61EC61FFF75BFC08B152
:100BE000FFF7ACFB75636E620E4D0D484435143053
:100BF000C5E90004C5E902472C616C61AC61284677
:100C0000EC61FFF747FC08B1FFF798FBB5636E6234
:100C100005B0F0BD0054004000100240000C01403F
:100C20006C000240CC010020704770470248816888
:100C300002781144816070472C000020074810B5ED
:100C4000016841F010010160032000F075F80F20E9
:100C500000F006F800F024F8002010BD002002404B
:100C600070B50D4D04464FF47A712878B1FBF0F061
:100C70000A490968B1FBF0F000F0CCFA48B9102C31
:100C800007D200222146501E00F036F800206C608A
:100C900070BD012070BD00002C0000203800002035
:100CA0000C4808B5816941F001018161816901F059
:100CB00001010091C16941F08051C161C06900F03A
:100CC000805000900448416821F0E06141F00071DB
:100CD000416008BD0010024000000140002809DB0F
:100CE00000F01F02012191404009800000F1E02046
:100CF000C0F8001170470000F0B40E4B1B680C46A2
:100D0000C3F30223C3F10705042D00D90425191DDF
:100D1000072901D2002300E0DB1E012606FA05F1B7
:100D2000491E214099409E40761E16403143F0BC3A
:100D300000F047BD0CED00E0064900F0070208682E
:100D40004FF6FF03184040EA0220034A10430860B0
:100D5000704700000CED00E00000FA052DE9F047B7
:100D60000F46050061D0434E306800F00700B842DE
:100D700009D2306820F0070038433060306800F056
:100D80000700B84251D128683B4C810712D5400773
:100D900003D5606840F4E06060602878000703D500
:100DA000606840F4605060606068A96820F0F000FE
:100DB000084360602878C00728D06868012810D0F0
:100DC0002168022810D0890700292EDA616821F0F5
:100DD000030101436160FFF7BDFC804641F28839A1
:100DE0000DE021688903EFE78901EDE7FFF7B2FC29
:100DF000A0EB0801494502D90320BDE8F0876068EF
:100E0000696800F00C00B0EB810FEFD1306800F0A2
:100E10000700B8420BD9306820F007003843306033
:100E2000306800F00700B84201D00120E5E72878DB
:100E3000400705D56068E96820F4E0600843606019
:100E40002878000706D56068296920F4605040EAD8
:100E5000C100606000F028F86168084AC1F303111E
:100E6000515CC8400649086006480068FFF7F8FE74
:100E70000020C2E70020024000100240F0260008D7
:100E80003800002030000020044805490068496807
:100E9000044AC1F30221515CC84070473800002069
:100EA00000100240002700080E4A51680E4801F069
:100EB0000C03042B11D0082B0FD10C48C1F3834332
:100EC000C903C05C0AD55168084AC1F34041921E6B
:100ED000515C054A5043B0FBF1F070470449484368
:100EE000704700000010024000127A00E02600085F
:100EF00000093D002DE9F84F040070D02078C04D66
:100F0000C00749D06868C0F38100012807D068682D
:100F1000C0F38100022809D16868C00306D528689B
:100F2000800339D560680028E7D035E06068B0F507
:100F3000803F0BD010B1B0F5A02F11D0286820F45D
:100F400080302860286820F4802002E0286840F47F
:100F500080302860606890B1FFF7FCFB06460AE02D
:100F6000286840F480202860F0E700BFFFF7F2FB1C
:100F7000801B642873D828688003F7D50CE0FFF73E
:100F8000E9FB064605E000BFFFF7E4FB801B642891
:100F9000F0D828688003F7D420789A4E80074FF065
:100FA00001094FF0000839D5686810F00C0F07D020
:100FB0006868C0F38100022809D16868C00306D4BC
:100FC0002868800714D52069012808D110E020691D
:100FD000B0B1C6F80090FFF7BDFB074605E00AE197
:100FE000FFF7B8FBC01B0228C4D828688007F7D5D4
:100FF0002868616920F0F80040EAC10028600DE02F
:10100000C6F80080FFF7A6FB074604E0FFF7A2FB47
:10101000C01B022823D828688007F7D4207800074F
:101020002CD57948A169D9B1C0F80090FFF792FB9F
:10103000074604E0FFF78EFBC01B02280FD8686A42
:101040008007F7D571484FF4FA510068B0FBF1F012
:10105000009000BF0098411E0091FAD20EE080E09F
:10106000C0F80080FFF776FB074604E0FFF772FB4D
:10107000C01B022875D8686A8007F7D4207840071B
:1010800060D5E8690027C00008D4E86940F08050C6
:10109000E861E869012700F0805000905C48016831
:1010A000C90513D40168834641F480710160FFF7DC
:1010B00051FB824606E000BFFFF74CFBA0EB0A00A5
:1010C00064284ED8DBF80000C005F5D5E06801289B
:1010D0000AD008B1052813D0286A20F00100286240
:1010E000286A20F0040002E0286A40F0010028622B
:1010F000E06841F2883B98B1FFF72CFB82460BE099
:10110000286A40F004002862EEE700BFFFF722FBE8
:10111000A0EB0A0159455AD8286A8007F6D50CE099
:10112000FFF718FB824605E0FFF714FBA0EB0A016E
:1011300059454CD8286A8007F6D41FB1E86920F0D9
:101140008050E861E06988B36968C1F381010229D0
:1011500044D00228C6F8608004D0FFF7FBFA0446AA
:1011600038E034E0FFF7F6FA074604E0FFF7F2FA5A
:10117000C01B02282BD828688001F7D4206AB0F55C
:10118000803F05D16868A16820F40030084368609A
:10119000D4E908010843696821F4741108436860C0
:1011A000C6F86090FFF7D6FA044606E025E000BFD7
:1011B000FFF7D0FA001B022809D828688001F7D56C
:1011C0001BE000BFFFF7C6FA001B022802D903206C
:1011D000BDE8F88F28688001F4D40EE00128F7D02C
:1011E0006868226A00F48031914204D1616A00F497
:1011F0007010884201D00120EAE70020E8E70000F3
:1012000000100240000042428004424238000020A8
:101210000070004010B5401EB0F1807F01D3012066
:1012200010BD4FF0E02460610F21601700F0C9FA93
:101230000020A06107202061002010BDFEE710B54E
:10124000406A0021426B02B19162826B02B19162ED
:101250000268136823F4806313604185202280F8BC
:101260003D2080F83E10016C41F010010164FFF751
:1012700077FA10BD2DE9F041446A94F83D2094F8C6
:101280003E50E16A2068436823F440734360636B17
:10129000002003B19862A36B03B19862212333EA63
:1012A00002074FF022060CD036EA020701D1202DAA
:1012B00007D094F83E20002A21D0628D012A20D048
:1012C00024E021684D6825F400654D606085282084
:1012D000292A02D02A2A07D00CE0236384F83D0093
:1012E0002046FFF7A2FC05E0266384F83D00204677
:1012F000FFF79AFC2068416841F440714160BDE805
:10130000F0812268136823F48063136022685368B5
:1013100023F44073536011F5803F06D0082904D0B0
:10132000B1F12A4F01D0202904D121680A6842F482
:1013300000720A6021684A6822F480524A6021687B
:101340004A6822F400624A606085216C19B1204627
:10135000FFF706FAD3E7202184F83D1094F83E10F9
:1013600084F83E00402905D0122020632046FFF774
:10137000BDFAC4E720632046FFF7FAFBBFE7016828
:101380004A69D24352050FD46FF480624A6100214A
:1013900040F8301F202242738173026942F0040238
:1013A000026101730120704700207047F8B50446C0
:1013B000C06A1E460D461746082807D0012805D0EA
:1013C00010F5803F02D0206B122804D120680168FC
:1013D00041F480710160134600224FF00111204654
:1013E000009600F05DF840B120680068C00502D5A5
:1013F0004FF4007020640320F8BD2069B0F5804FE1
:101400000ED00620216800EAD51040F0F0000861F7
:1014100033463A460B49204600F08AF878B902E094
:1014200005F0FE0000E0E8B2216808610549334696
:101430003A46891F204600F07BF80028DCD00120C6
:10144000F8BD00000800010070B516460D460446C0
:101450001EE02046FFF793FF08B1012070BD681C15
:1014600016D0FFF777F9801BA84200D885B920680D
:101470004069C04340070BD5002044F8300F2021BD
:101480006173A073216941F0200121612073E4E7B9
:1014900020684069C0434007DBD4002070BD0000D5
:1014A0002DE9F047984617460D460446C1F3074616
:1014B000DDF820902AE000BFB8F1FF3F26D0FFF70B
:1014C00049F9A0EB0901414502D8B8F1000F1DD13F
:1014D0002068012E16D0806925EA00000004000C67
:1014E00012D00020B84211D1002044F8300F202142
:1014F0006173A073216941F02001216120730120F3
:10150000BDE8F0874069E7E70120EBE72068012E9E
:101510000AD0806925EA00000004000C06D00020F3
:10152000B842C9D00020EBE74069F3E70120F7E7B4
:101530002DE9F047984616460D4604464FF000093F
:101540004FF0200AC1F3074723E020684069C043F9
:10155000400515D42068016841F4007101602168DC
:101560006FF480604861C4F8309084F83DA084F83E
:101570003E90216C41F00401216484F83C9021E00C
:10158000701C06D0FFF7E6F8A0EB0800B04203D8C5
:1015900016B1012F1FD021E02068012F15D08069DE
:1015A00025EA00000004000C18D000BF44F8309F6A
:1015B00084F80DA084F80E90216941F0200121618A
:1015C00084F80C900120BDE8F087406925EA00000E
:1015D0000004000CEAD12068406901E020688069BD
:1015E00025EA00000004000CAFD1ECE770B5164608
:1015F0000D4604461EE02046FFF7C1FE08B101205B
:1016000070BD681C16D0FFF7A5F8801BA84200D853
:1016100085B920684069C04300060BD5002044F816
:10162000300F20216173A073216941F020012161F5
:101630002073E4E720684069C0430006DBD4002043
:1016400070BD00000D4808B5416941F001014161DC
:101650004069002200F00100009011461020FFF7C1
:101660004BFB1020FFF73AFB002211461120FFF739
:1016700043FBBDE808401120FFF730BB00100240DB
:10168000F0B585B00024204800940194029403949E
:10169000816941F010018161816901F010010491BB
:1016A000816941F020018161816901F0200104918B
:1016B000816941F004018161816901F004010491B3
:1016C000816941F0080181618069104F00F00800D4
:1016D0004FF400550490002229463846FFF735F8AC
:1016E0000095022601250396CDE901546946384646
:1016F000FEF736FF009669460548CDE90145FEF73D
:101700002FFF05B0F0BD00000010024000100140A6
:10171000000801400D4810B50B4901600C494160BB
:1017200000214FF480428160C0E903124161816170
:10173000C1610162FFF716F8002803D0BDE8104030
:10174000FEF7FCBD10BD00000054004078010020F1
:10175000A0860100FEE7FEE770477047FFF766BA14
:1017600030B58FB028216846FEF750FD14210AA835
:10177000FEF74CFD01210804CDE90010002402947D
:1017800002250491CDE907504FF4E0100990684616
:10179000FFF7B0FB08B172B6FEE70F20CDE90A05EE
:1017A0004FF48060CDE90C4002210AA80E94FFF7A7
:1017B000D5FA002801D072B6FEE70FB030BD7047F1
:1017C000FEE70907090E002804DB00F1E02080F89D
:1017D0000014704700F00F0000F1E02080F8141DA5
:1017E00070470000FFF72AFAFFF7BAFFFFF748FF3C
:1017F000FFF728FFFFF78EFF254B264A264927488B
:1018000000F0B2F9254800F0FEFC0021234800F06A
:101810000AFD224800F05FF82149204800F05CF9F9
:101820001E4800F042F91F4D1F4C02212846FEF7CA
:1018300087FF18B90020E0800A2060801A49091D3E
:10184000881E00F039FF154800F03CF8608817A3A7
:1018500082B2E08881B2114800F0DAF8608815A3FE
:10186000103082B2E08881B20C4800F0D1F8608874
:1018700012A3203082B2E08881B2084800F0C8F894
:101880000120FEF749FD054800F00FF9CDE7000003
:1018900021260008C9220008982B0008E400002037
:1018A000082700080008014000000020776F726CD4
:1018B0006400000048656C6C6F31000048656C6C1A
:1018C0006F32000001680A7C90F83810406B514379
:1018D000C900FEF779BC10B5044600F0A1F8204617
:1018E00000F0C4F80028FAD12046BDE810400021DD
:1018F00000F0E4B82DE9F041044690F870001F466E
:1019000015460E4630B1012809D002280CD0032814
:1019100015D10FE0E16D20468847284408E0E16DCD
:1019200020468847301A09E0E16D20468847281A8A
:1019300085B204E0E16D20468847304486B23946DE
:101940000027204600F006FBA4F864600100A4F81C
:10195000665003D0204600F02DFA87B23846BDE825
:10196000F08100003FB581B0044690F88C000899E2
:1019700000283AD0BDF81000002836D0012811D92F
:10198000022902D0032907D00CE0BDF80820101A64
:10199000401CADF8080005E0BDF80C20101A401CF2
:1019A000ADF80C0011F0010521D0B4F84810BDF8D5
:1019B0000800814219D8B4F84A10814215D9B4F808
:1019C0004E30B4F84C2004A90DF10C0000F064F97D
:1019D00000280AD00095206BBDF81030BDF80C200F
:1019E0008568BDF808102046A84705B030BDB4F89A
:1019F0004C10BDF80C008142F7D8B4F84E1081426B
:101A0000F3D9B4F84A30B4F8482004A902A8DDE7B5
:101A100030B4024C446030BC00F06BB98D22000839
:101A200010B5044690F8930010B12046FFF74AFF26
:101A30002046BDE81040002100F040B870B50D46CA
:101A40001E460446B0F84E10B0F84C00049B00F05F
:101A5000DEFA002809D0B4F84A10B4F8480033463A
:101A60002A46BDE8704000F0D2BA70BD70B5044699
:101A700000F05DFB94F8390094F838100844C5B2C2
:101A80002068407CA84204D8204600F0C4FB002017
:101A900070BD94F8930010B12046FFF713FF29465C
:101AA000204600F00BF8012070BD10B5044600F090
:101AB0003EFB2046BDE8104000F0ADBB10B504462B
:101AC00080F83910006B016820468847206B416818
:101AD0002046BDE81040084710B50446806D884296
:101AE00009D004F17400A16500F0ECFA2046BDE8CD
:101AF000104000F055B810BD0149C16570470000A5
:101B0000691D00080021A0F85010A0F854104FF6ED
:101B1000FF71A0F85210A0F85610016B49680847F1
:101B200070B5044600250498A565E362616384F8F6
:101B3000382084F8395084F86D5084F8915084F836
:101B40008D50012184F8921084F89310206301686D
:101B5000204688472046FFF7D5FF2046FFF7CCFFF9
:101B600084F8705070BD00007CB50C46009313469D
:101B70000546084A084900F05EFB01A800F09CFAFF
:101B80000146064B00949DF804202846FFF7C8FF45
:101B90007CBD0000F1230008192500082920000859
:101BA00010B5816D00291AD090F9813080F88E30FF
:101BB00090F9822080F88F2090F88D1000290ED0A7
:101BC00001290DD090F97E4090F980100C449C4280
:101BD00001DD80F88E408A4201DD80F88F1010BD53
:101BE00090F983108B4201DA80F88E1090F98410FE
:101BF000F1E72BB1012B05D0022B06D0104402E0F7
:101C0000084400E0801A80B27047401AFBE72BB10D
:101C1000012B05D0022B06D0401A02E0104400E050
:101C2000084480B27047801AFBE738B50446B0F824
:101C300056000090B4F85230B4F85420B4F8501064
:101C40002046FFF7FBFE18B3012084F88C00B4F89F
:101C50004810B4F85000814201D2A4F84800B4F80A
:101C60004A10B4F85200814201D9A4F84A00B4F8ED
:101C70004C10B4F85400814201D2A4F84C00B4F8DE
:101C80004E10B4F85600814201D9A4F84E0038BD78
:101C9000002084F88C0038BD30B504880D882544B8
:101CA000ADB2AC4205D99C4202D25D1EADB200E09D
:101CB00014469C4201D2954201D8002030BD944286
:101CC00000D214469D4200D91D460480281B08807E
:101CD000012030BD38B5C58F049C0094521BC46AE6
:101CE00092B2A04738BD38B5049C0094FFF7F2FFCC
:101CF00038BD2DE9F0471C4691468846064600F05F
:101D0000D7FC00254FF6FF77726821783046904760
:101D10000346B84225D0641CA3F57F40FE38F3D0BB
:101D20004A4641463046FFF7E5FD96F8701031B15E
:101D3000012907D0022908D003290FD10AE008EBB6
:101D4000000104E009EB000106E0A8EB00011FFA26
:101D500081F803E0A9EB00011FFA81F9284485B25C
:101D6000D2E72846BDE8F0870020704710B50C4642
:101D700000F006F80122641EA240801A40B210BD95
:101D800030B50568047B2A78E2406318DBB2082B83
:101D900009D36D1C05602D78C4F10804A5401543D6
:101DA000083BEAB2DBB201248C40641E144003738A
:101DB000204630BD2DE9F843054600F1600400F0EF
:101DC0000CF915F96B6F2046E97BFFF7CFFF8146D1
:101DD000297C2046FFF7CAFF0746697C20466B3DF9
:101DE000FFF7C4FF804694F90A00002857DDF01978
:101DF000404247B2237CA0883A464946FFF7F9FEA5
:101E0000A080237C3A46E0884946FFF700FFE08047
:101E1000A188277C02460B4637B1012F0AD0022F3A
:101E200040D0032F0FD146E094F90A7030443B4470
:101E30009BB207E0891B491C94F90A705B1C89B2AC
:101E40009BB2384480B200902846FFF7F7FD30B3CC
:101E50000020207284F8090095F876102046FFF7DC
:101E60008FFF814695F877102046FFF789FF0746D8
:101E700000224946284600F027F801223946284624
:101E800000F022F801212046FFF77AFF0028EFD169
:101E900094F90900B042DFDBA07B85F89200404650
:101EA000BDE8F88394F90A705B1CC91B491C89B210
:101EB0009BB2921B04E094F90A7033449BB2D21B8C
:101EC000521C92B2401CBDE72DE9F74F84B00D467D
:101ED000049C94F8687094F869806034A07AC01B00
:101EE000C6B20196B54200D201954FFA88F279B296
:101EF000A088B4F806B0237C92468946FFF779FEA5
:101F00000290237C524649465846FFF780FE02461F
:101F1000069808B1A17B02E0607B50B9E17B049890
:101F200080F89210207C0090DDE901310498FFF7E1
:101F300019FDB54207D3A81BC5B208F1010000275F
:101F400000F0FF08CAE77819207284F8098007B00A
:101F5000BDE8F08F70B50D460146806D1730FF2D3E
:101F600010D8612D02D3B1F8881003E0412D02D3BF
:101F7000B1F886100844417819B30278AA42F9D121
:101F8000801C70BDB1F88A100C182646002130461E
:101F900000F019F804440221304600F014F8361D10
:101FA000A842F3D34FF6FF72207802EA002160784E
:101FB000084306D0A84201D1E01C70BDA0780444BB
:101FC000F2E7002070BD08444FF6FF7201784078B8
:101FD00002EA0121084480B2704730B5054600F19D
:101FE000600401660020207315F8781F2046FFF773
:101FF000C7FEA07269782046FFF7C2FEE072A87E95
:10200000A07310B10020E07330BD0120FBE78A42CD
:1020100005D2834201D89A4203D9012070478342F6
:10202000F9D8002070470000F0B502F0070601243F
:10203000B440002590F892E0E7B2DDF814C02C46D9
:10204000BEF1010F01D83D4600D03C46076822F0A2
:102050000702BCF1000F3F7C07FB02F7BAB2476BE7
:102060003A44114409D108785B1E284360401B04A0
:1020700001F8010B1B0CF6D1F0BD0A78761C2A433F
:102080006240A3F101030A7016F007069BB206D066
:102090006A06150E6206140E002BEED1F0BD428FBB
:1020A000114490F89220012A03D800BF4FF0010597
:1020B000F2D04FF00104EFE70821017000487047AB
:1020C0005402002070B5054608782870487868707A
:1020D0008878A870C878E87008792871487968719C
:1020E00088790C46A871E079E871207A2872607AC4
:1020F0006872A07AA872E07AE872207B2873607B0D
:102100006873A07BA873E07BE873207C287411219E
:102110002046FFF758FF688213212046FFF753FF40
:10212000A88215212046FFF74EFFE88270BD2DE9F9
:10213000F843064690F8387090F83950006800244B
:102140004FF6FF7890F81190316830462A460B7CA4
:10215000716B04FB03FC1FFA8CFC08EACC0C614495
:102160000091002100F040F8641C6D1CE4B2EDB257
:10217000BC4201D24D45E7D3BDE8F883F0B590F8F5
:1021800038204FF6FF75036805EAC2018187197C84
:1021900005EAC101418790F8394005EAC401C187C9
:1021A0005E7CA718B74201D9321B92B205EAC2027F
:1021B00020F8401F11444180998A8180D98AC180CA
:1021C000F0BDFFF7DBBF0021A0F84810B0F84410C5
:1021D000A0F84A10B0F84010A0F84C10B0F8421027
:1021E000A0F84E10FFF721BD1CB58DF805108DF835
:1021F0000620049C8DF804300094012284686B460C
:102200000F21A0471CBD30B484680023A44630BC15
:102210001A460A21604730B484680023A44630BCC3
:102220001A461021604730B484680023A4460A4649
:1022300030BC0B2160472DE9F04115460E4604469F
:10224000069F00F009F86761A660C4E903532046C1
:10225000BDE8F04100F012B8002140F8081B064A22
:10226000026042608260C260C17681770161FF21B5
:10227000017780F8201070471D26000830B484686C
:102280000023A44630BC1A4609216047080001D04B
:102290000A2801D14FF6FF70704730B4046900235B
:1022A000A44630BC1A461921604713B501220469BF
:1022B00001AB1721A0471CBD30B404690023A4461C
:1022C00030BC1A461821604738B5184818290DD077
:1022D00004DC142907D0172923D10AE0192916D0C4
:1022E00020291ED11FE0FFF715FA1CE00021017024
:1022F00019E00F4C08E000BF017813F8015B65544A
:10230000491C521E0170D2B2002AF5D10BE04FF4E5
:102310007A7100910378064A78210648FEF7E8FAB8
:1023200008B1002038BD012038BD000000000020A9
:10233000440000207801002030B4C4680023A44683
:1023400030BC1A461921604730B4C4680023A44643
:102350000A4630BC1621604730B4C4680023A44646
:102360000A4630BC1521604730B4C4681346A44601
:102370000A4630BC17216047F8B50C464FEA000505
:1023800014F8011B182924D00EDC152919D01629A0
:1023900017D0172923D120788DF800006A46012133
:1023A0002846FFF7E1FF0AE0192912D0FE2916D1CD
:1023B00022788DF800202921284600F05DF9641C60
:1023C000DEE722788DF80020EE6800232846B0472B
:1023D000F5E70023EE681A462846B047D0E7F8BD77
:1023E00030B4C4680023A44630BC1A4618216047A4
:1023F0002DE9F041DFF8B08014460646A1F1140241
:10240000002798F800001D46062A4AD2DFE802F0AD
:102410002F03161B3E4310B13046FFF73EFF3046F8
:10242000FFF74AFF00213046FFF73FFF21463046C5
:10243000FFF73BFF012088F8000029E021463046E5
:10244000FFF733FF24E050B13046FFF726FF06E0E8
:102450001821304600F016F9183CE4B21835182C53
:102460002A46F5D82146304600F00CF90EE096F8E1
:102470002400FF2802D1782086F8240037692B46F3
:1024800022463046BC46BDE8F041604788F80070FF
:102490000120BDE8F0810028F8D03046FFF7FDFEAE
:1024A000F4E70020F5E700003C00002070B50023B1
:1024B000456904461A462821A8470023E5681A46BC
:1024C00014212046A84701224B21204600F0D4F8D1
:1024D000206829210279204600F0CEF800224B2105
:1024E000204600F0C9F8206829210279204600F032
:1024F000C3F801224B21204600F0BEF820682921B4
:1025000042792046BDE8704000F0B6B80160897C91
:1025100080F822107047000070B50C46054600F0A8
:1025200019F888B9092C0BD00A2C01D0002070BDF5
:102530002846FFF7BBFF05492846FFF71DFF03E0CC
:1025400003492846FFF7E2FF012070BDCA2B0008AF
:10255000CC2C00082DE9F0411E46144605460B29F7
:1025600008D00D290ED00E291ED00F2927D000200B
:10257000BDE8F0811AB12849FFF7FEFE4AE026497E
:10258000491FF9E74AB124490C31FFF7F5FE2868E5
:1025900090F8130085F822003CE01F49491DFFF721
:1025A000EBFE2868807CF5E7FFF71AFF81212846BB
:1025B000FFF7D2FE21462846FFF7C6FE27E0FFF7C9
:1025C0000FFF707995F8221001EBC000C7B24021CF
:1025D0002846FFF7C1FE102040EA17112846FFF7F2
:1025E000BBFE07F00F012846FFF7AEFEB07940F0C2
:1025F000B0012846FFF7A8FE30793268C006010E08
:102600002846FFF7B1FE641E14F0FF04F4D12846FB
:10261000FFF792FE0120ABE7A92B000800207047CE
:1026200070B514291FD0114C172905D0182910D0C6
:10263000192911D0002070BD0D4907E0607813F80A
:10264000015B0D54401C521E6070D2B2002AF5D1BD
:1026500009E00020607006E090F824106378044AD6
:102660000448FEF7DBF9012070BD000000000020E7
:10267000C40000207801002030B444690023A4463F
:1026800030BC60472DE9F04115460E460446FFF781
:1026900013FE40212046FFF708FE27692B463246ED
:1026A00017212046B8472046BDE8F041FFF7F5BDA9
:1026B000002180F826107047B0F90020B1F9001011
:1026C0008A4202DA02F1010202E005DDA2F1010212
:1026D00002804FF0010070474FF000007047010288
:1026E00002030405060708090A0B0C0D0E0F101053
:1026F00000000000000000000102030406070809B2
:1027000000000000010203045F000202040403044D
:10271000050C0BFFFE08FE08FE016A032C04712065
:102720000500CC09210882C4C991F2082207336D43
:102730004BB202231087447CCAA81C3365548E997F
:1027400032AA012410A53C6B1E2AA938E28849A5AB
:10275000A1230025158AC49DD44A65552355499562
:10276000544649E5A8725600261188C4AC862A232F
:1027700095A186494B73A4A5002706316DCA002890
:102780000BA4B47A8C4ABA754601290AA4B44A4605
:10279000D974C91A2A09555C6B55AD66042B0B55C3
:1027A0004C6B4671C88C22002C0742B4C9480A2DD4
:1027B00006135CCA002E0622C4C9082F0A84C47AF4
:1027C00099638E3903300E8544DB52238D34D24811
:1027D00023A905310984459B9ABE4600320C8544E5
:1027E000DB52236929F33802330E8544DB52234937
:1027F0008D461A492D00340B8544EB95549A636439
:1028000039350D8544CB2BA391D14823A905360E2C
:102810008544DB52238FA4461A492D00370A84448D
:10282000CBA1638E2E00380E8544DB5223A9A5462A
:102830001A492D00390E8544DB52238DA4461E49CA
:102840002D003A0752C4C988233B0972B4C98823B2
:1028500029003C0956CC3B9236D6583D083554CB1E
:10286000D070083E0A56CC8BC61A4B1B013F0A8516
:1028700044DBB2A5CCB4094012A93CFD465A669887
:10288000E248FE5432939A1E11411289433CCAD445
:10289000C61B468DA21E2366A4E608420E8744CCC2
:1028A000694935A425951C430143108744ECAA4788
:1028B000461B6AA8518DE24800440F88C4CCADA3E2
:1028C000565A69A5954E6302450E86C4CB25938A58
:1028D00023AA28931C23460E86C4CB25934C2A8E0C
:1028E000A8A21E11470E8744ECAA47461BCAA15551
:1028F000962B48128944CD482369A9E518514B2DE0
:10290000B51A6904490984C4CA48D2D7084A0C8652
:10291000C4EBC81A69E42BCA094B1189C4CC887668
:102920009619A90C8746525B230E4C0F86C4CBC860
:102930001A69A4914632C931024D158B44CEC82381
:10294000ED9954924925995492D18CD652234E1127
:1029500088C48C5E3ACE38524C23C699D54E004F6F
:102960000E8744ECAEF4C8238FAC729E00500F87E4
:1029700044CC694925D5901A6A3432005113983CE9
:10298000EC46396AA595562349A5D148192A005223
:102990000D88C4CC2D3DF3D0D235D200530D86C462
:1029A000DB39F2D068E811D702540E86C4CB915CB3
:1029B00051238D34D22301551088C4CC484B471D78
:1029C00075D451479D4704561188C4CC484B479D48
:1029D00055462A2395A1C61A57158B44CE486A49F5
:1029E00019CDA8928A2AA9BC36D21A69095810882A
:1029F000C4CC484BC795D1C61BA599D51159118890
:102A0000C4CC484B679591CA50638D351C115A0B45
:102A100086C4CB91F57CEB31025B08A334CA50FE2F
:102A20001A5C0C84C44ACE28679433CA015D08A39B
:102A300034CAF2D7105E0A65546B4679A65A075F0E
:102A4000061634CB01600623748A14610954C4CA83
:102A500056238D01620E86C48B461A69641D71C4AB
:102A6000B50063095544DB925BA605640E86C4FB82
:102A7000461AA931E288232D0365095544DB52E348
:102A80004623660C85C4EA52498EA8CD9100670D95
:102A900086343B8A5339F7D8632400680E86C48B8A
:102AA000461A69641D71C41105690A84C49AD470F8
:102AB000BA46006A09A3B49ABDBC46026B0E8644AE
:102AC0008B461A69648D38A2B2066C0884C4CAF4B5
:102AD0006B046D0D5AC48D92EA11E5887244036E41
:102AE0000B56C48B52471C7144016F0C56C4DB4813
:102AF00072C411D54800700D76B48B52471C718C8E
:102B0000A4D106710E77B4DB505249A5A6D250A3CA
:102B100011720954C48A1A239A00730954C4DA90B2
:102B2000230E05740973445A52439902750B56C417
:102B30008B1C71C4919601760B56C4CBB2A2CA1AF3
:102B40004900770C5944CDF28A4A65A59109780A63
:102B500056C4CBB2B24ED600790D76B4CBB2A2CA6F
:102B60001AC9AD11007A085544CB25CD317B0AA492
:102B7000B4AA9296966E017C068146CB217D0AA46A
:102B8000B48A96B6922E097E0726DCDB520B000033
:102B90000004FFFF00000000C3210008C721000857
:102BA000E71C00081815AF19FF1815AE19FF181506
:102BB000A115C819FF1815A015C019FF1815A115E2
:102BC000C019FF1815A015C819FF1815AE15D51690
:102BD0008015A8163F15D316001540158D1614152F
:102BE00020160015A115C815DA1612158116CF1575
:102BF000D916F115DB1640152E15A415A619FF18C8
:102C000015AE15D5168015A8163F15D3160015401C
:102C1000158D16141520160015A115C815DA1612F3
:102C2000158116EF15D916A115DB1600152E15A462
:102C300015A619FF1815AE15D5168015A8163F153F
:102C4000D316001540158D16141520160015A11564
:102C5000C815DA1602158116CF15D916F115DB162F
:102C600040152E15A415A619FF1815AE15A415D5D7
:102C7000165015A8163F15D31600154015AD168B26
:102C800015D9162215DB16351532158116FF15A636
:102C900015DA161219FF1815AE15D5168015A816D7
:102CA0003F15D316001540158D1614152016001566
:102CB000A115C015DA1612158116CF15D916F11502
:102CC000DB1640152E15A415A619FF000001140AE5
:102CD0006464323200127A00000428961008000062
:102CE000800040000001140A6464323200093D0093
:102CF0000004289610080202800040006C6973747A
:102D00005F3100006C6973745F3200006C6973742A
:102D10005F3300006C6973745F3400006C69737416
:102D20005F3500006C6973745F3600006C69737402
:102D30005F6100006C6973745F6200006C6973749A
:102D40005F630000642D00080000002044000000C4
:102D500028010008A82D000844000020740C000081
:102D60004401000800000A00C0FF00002C2D0008EC
:102D7000342D00083C2D0008FC2C0008042D000810
:102D80000C2D0008142D00081C2D0008242D00080F
:102D90000100000010000000000000000024F4000A
:082DA00000000000000000002B
:04000005080000ED02
:00000001FF
